:0300000002083EB5
:0C083E00787FE4F6D8FD7581070208857C
:0E08CA00821C00008319000000830200000061
:10048600EF54F0C4540FFCEF540FFFEC1460381413
:10049600605A14607C14700302053C240460030255
:1004A6000560AE80ED600F7401A807088002C333B3
:1004B600D8FC4EFE800E7401A807088002C333D80C
:1004C600FCF45EFE8E8022AE90ED600F7401A807EC
:1004D600088002C333D8FC4EFE800E7401A80708BC
:1004E6008002C333D8FCF45EFE8E9022AEA0ED608F
:1004F6000F7401A807088002C333D8FC4EFE800E95
:100506007401A807088002C333D8FCF45EFE8EA0EF
:1005160022AEB0ED600F7401A807088002C333D87D
:10052600FC4EFE800E7401A807088002C333D8FC77
:10053600F45EFE8EB022AEE8ED600F7401A80708E7
:100546008002C333D8FC4EFE800E7401A8070880D3
:0A05560002C333D8FCF45EFE8EE809
:010560002278
:100B4100EF54F0C4540FFDEF540FFFED14601D146A
:100B5100602A1460371460442404704E7401A8079D
:100B6100088002C333D8FC5580FE803E7401A8077B
:100B7100088002C333D8FC5590FE802E7401A8076B
:100B8100088002C333D8FC55A0FE801E7401A8075B
:100B9100088002C333D8FC55B0FE800E7401A8074B
:0C0BA100088002C333D8FC55E8FEAF0604
:010BAD002225
:0D0F2D00AE05EEC454F0FEEF540F2EF58912
:010F3A002294
:0B0F5700758CFC758A66D28CD2A92232
:03000B00020E7F63
:100E7F00C0E0C0D075D000C000758CFC758A667854
:100E8F001DE22401F218E23400F2D000D0D0D0E0FD
:010E9F003220
:060F6A00EF24FF92AF220C
:08000300781CE2FE08E2FF2276
:100D130078A1EBF208EAF208E9F2EFC39402400388
:100D23007FFF22EF75F00AA42405F9E4A801FC7DF6
:100D3300FEC00078A1E2FB08E2FA08E2F9D0007EE7
:100D4300007F0A12016B78A1E2FB08E2FA08E2F9DC
:0F0D53009000031201AAFFE4FD1204867F002224
:0D000E00EF75F00AA42405F9E4FA7BFE2248
:1007AB00A907E9C3940240037FFF2278A5E2FFE982
:1007BB0075F00AA42405F8EFF2E975F00AA4240AEF
:1007CB00F8E4F2AF03E975F00AA4240BF8EAF20897
:1007DB00EFF2E975F00AA4240DF8E4F208F2E975DA
:1007EB00F00AA42409F8EDF278A5E26031ED700E61
:1007FB00E975F00AA42407F8E2FF7D01800CE97586
:10080B00F00AA42407F8E2FFE4FD120486E975F070
:10081B000AA42408F8E2FFF460167D01800FE97545
:10082B00F00AA42408F8E2FFF46005E4FD12048644
:03083B007F002219
:0A0ACC0078A1EBF208EAF208E9F263
:100AD6007C037DE812020BAB07AA06E4F9F8FF7E59
:100AE600107D0EFC120D62EC12002612006478A432
:100AF600EEF208EFF278A1E2F908E2FA08E27819D4
:100B0600C9F208EAF208E9F2C374FF9FFB74FF9E7C
:100B1600FA7C007DFFAF03FE12021D7801EFF27C26
:100B2600007DFFAF03AE0212021DAF057800EFF2A3
:0A0B360008E2F58D8F8BD28ED2AB52
:010B40002292
:05001E00C2ABC28E22FE
:03001B0002038C51
:10038C00C0E0C0F0C083C082C0D075D000C000C037
:0D039C0001C002C003C004C005C006C007B8
:1003A90078F3E4F278F3E2FFC394024003020462B3
:1003B900EF75F00AA42405F8E2700302045A78F3F1
:1003C900E2FF75F00AA4240BF8E2FC08E2FD4C6098
:1003D90031EF75F00AA4240EF9C3E39D19E39C409B
:1003E900217819E2FB08E2FA08E24A4B606378F3E4
:1003F900E2FF781908E2FA08E2F5828A831202BC60
:10040900804F78F3E2FE75F00AA42406F8E2FFEEC5
:1004190075F00AA4240AF8E2FD12048678F3E2FFD3
:1004290075F00AA4240AF8E27012EF75F00AA42400
:100439000DF808E22401F218E23400F278F3E275CB
:10044900F00AA4240AF8E270047F0180027F00EF19
:10045900F278F3E204F20203AD7801E2F58D18E2D5
:02046900F58B11
:10046B00D007D006D005D004D003D002D001D000E5
:0B047B00D0D0D082D083D0F0D0E0328F
:030F85007F0122C7
:100E32007802EBF208EAF208E9F2E4FF120F6A75AF
:100E4200985075C83475CBFF75CADB85CBCD85CA82
:070E5200CCD2AC0F020F6AC5
:0A0DA60078F0EBF208EAF208E9F237
:100DB000E4FFEFC39D501EC29978F0E2FB08E2FA0F
:100DC00008E2F98F827583001201AAF5993099FD26
:050DD000C2990F80DD57
:010DD50022FB
:03002300020C10BC
:100C1000C0E0C0F0C083C082C0D075D000C000C0AA
:100C200001C002C003C004C005C006C00730981F41
:100C30007802E2FB08E2FA08E24A4B601078020808
:100C4000E2FA08E2F5828A83AF991202BCC298D018
:100C500007D006D005D004D003D002D001D000D0F8
:0A0C6000D0D082D083D0F0D0E03273
:0F0F1E007D017F01120F2D120F577F01020F6A05
:080F6200120EBC120F7680FB99
:1008D800812700861E00000000000083240000001D
:100F0E00782408E2FA08E2F5828A83E4FD0202BC44
:100BAE007824EBF208EAF208E9F2E47897F2789CFE
:100BBE00F208F208F208F208F2789A7412F27898B3
:100BCE007427F2087410F27BFE7A007997E4FF1214
:100BDE000D137827E204F2789A7413F2789874263B
:100BEE00F2087411F27BFE7A0079977F01120D13D1
:100BFE007827E204F27BFF7A0F790E7F047E0002E3
:020C0E000ACC0E
:100EFD00EF75F003A4241EF8EBF208EAF208E9F20C
:010F0D0022C1
:100E0600789DEFF208EDF208EAF208EBF2E4FF1241
:100E16000F6A789DE2FF08E2FD08E2FA08E2FB7835
:0C0E2600A57401F21207AB7F01020F6AF5
:100EA000789AEFF2E4FF120F6A789AE2FFE478A5ED
:0C0EB000F2FBFAFD1207AB7F01020F6A93
:100CC300E47897F27897E2FFC394025042EF75F00D
:100CD30003A4241EF8E2FB08E2FA08E24A4B602868
:100CE300EF75F003A4241EF808E2FA08E2F91202F1
:100CF300B8EF60147897E2FF782408E2FA08E2F587
:0F0D0300828A837D011202BC7897E204F280B5E8
:010D120022BE
:1008E800812C00A0402D0000000000000000000046
:1008F80000000000000000000000000000000000F0
:1009080000000000000000000000000000000000DF
:1009180000000000000000000000000000000000CF
:10092800000000000000817100812900822A000077
:0E093800819100836E000000816D0081280017
:060DD6007BFEE22405FD96
:0A0DDC0078F0EBF208EAF208E9F201
:100DE600E4FFFEEEC39D501778F0E2FB08E2FA0836
:0F0DF600E2F98E827583001201AA2FFF0E80E4AE
:010E050022CA
:0A09520078AAEBF208EAF208E9F2D5
:10095C007BFE7A0079B074BC1201D790000174FE52
:10096C001201E978ADE2FE9000021201E978AEE2E4
:10097C009000031201E9900004EF1201E978AFE254
:10098C00600FE92404F9E43AFA120191448012014F
:10099C00D7EEFF7E0078B57C007DFEC00078AAE221
:1009AC00FB08E2FA08E2F9D00012016B7A0079B088
:1009BC0078AD120DD678ADE2FE24B5F8EFF27BFEE1
:0B09CC007A0079B0EE2406FD020DA6B3
:100E5900786DE278A7F208EFF27BFE7A0079A7783D
:100E6900AD7402F27829E2FF04F278AEEFF2E408F9
:060E7900F27F02020952A3
:0A056100789DEBF208EAF208E9F2D7
:10056B00E4FFF978A2C9F208F208E9F2789DE2FB00
:10057B0008E2FA08E2F90F9000001201AA786DF276
:10058B000F9000011201AA7872F20F900002120173
:10059B00AA78A5F20F9000031201AA78A6F27E00AA
:1005AB00E92FF9EE3AFA78A2EBF208EAF208E9F24F
:1005BB007872E2D394065064E478A1F218F2787260
:1005CB00E2FF78A1E2FEC39F503808E2FB08E2FA93
:1005DB0008E2F978A0E2FD7C00E92DF9EC3AFAC0CB
:1005EB0001EE75F005A42473F9E4A8017DFED0019A
:1005FB00FE7F0512016B78A0E22405F208E204F2FB
:10060B0080BC7BFE7A007972C002786E08E2FA0831
:10061B00E2F5828A83D0027F010202BC7F01120EB7
:01062B005975
:01062C0022AB
:0409D7007897EFF22C
:1009DB007871E2C394404002E4F27897E2FF7871B9
:1009EB00E2FE04F2742D2EF8EFF27871E224FE6031
:1009FB000E14601B24027027EF64BC604D804712FD
:100A0B000F817897E2FE6F6041EEF4603D8037789E
:100A1B0097E2FFD3943B4002802C7828EFF22278A8
:100A2B0028E22406FFE433FE7871E2B5071CE4B537
:100A3B0006187A00792D7828120DD67897E2B5072B
:0A0A4B0005782C7401F2E47871F2D2
:010A5500227E
:10062D00789AE4F208F208F2782CE270030206F8E8
:10063D007BFE7A00792D7897EBF208EAF208E9F261
:10064D009000041201AA30E722E478ADF27897E227
:10065D00FB08E2FA08E2F99000031201AA78AEF263
:10066D00E408F2FBFAF97F041209527897E2FB08CD
:10067D00E2FA08E2F99000041201AA547FFF146017
:10068D00181460312402705F120003782AEEF2080C
:10069D00EFF278917401F2804E7B007A007900C000
:1006AD0002786E08E2FA08E2F5828A83D002E4FF4E
:1006BD001202BC80327897E2FB08E2FA08E22405C8
:1006CD00F9E43AFA08EBF208EAF208E9F2120F7CC3
:1006DD00EF700F789AE2FB08E2FA08E2F912056171
:0B06ED0080057F02120E59E4782CF209
:0106F80022DF
:100C6A007891E26053120003782AE2FC08E2FDC39D
:100C7A00EF9DFDEE9CFCC004C005120F817E007C36
:100C8A00037DE812020BD005D004D3ED9FEC9E4001
:100C9A0027120F817897EFF27BFE7A00799778AD69
:100CAA007401F27829E2FF04F278AEEFF2E408F276
:080CBA00FF120952E47891F2E7
:010CC200220F
:100EEA00786EEBF208EAF208E9F27BFF7A0979D721
:030EFA00020E32B3
:060F700012062D020C6ABE
:0B094600839400000081920081930068
:0E0F3B00E4FF120B41EF60037F01227F0022D2
:0E0F49007F01120B41EF70037F01227F002217
:100ED4007BFF7A0F793BE4FF120EFD7BFF7A0F79DB
:060EE400497F01020EFD32
:0706F9007897EFF208EDF223
:10070000E408F2ED701D04F27894E2FB08E2FA08C6
:10071000E2F99000021201AA6401703D7F03120EFB
:100720005980367898E26401702F7894E2FB08E2F1
:10073000FA08E24A4B60227894E2FB08E2FA08E207
:10074000F9120191FF7897E2B5070E9000021201AD
:10075000AAB4010578997401F27899E2604C78970F
:10076000E2FF120EA07892E2700F08F2FF120E590B
:100770007894E4F208F208F2227896E22405F2185E
:10078000E23400F27892E214F27894E2FB08E2FAA2
:1007900008E2F9120191FF9000011201AAFD9000F8
:0A07A00003120272FBAAF0120E060B
:0107AA00222C
:0A0A56007897EBF208EAF208E9F2E3
:100A600008E4F208F208F2EF1470607897E2F908EF
:100A7000E2FA08E208C9F208EAF208E9F2789AE232
:100A8000FB08E2FA08E22401F9E43AFA7894EBF27E
:100A900008EAF208E9F2789AE2FB08E2FA08E2F9D9
:100AA000120191147892F2087401F208E2FB08E254
:100AB000FA08E2F9120191FF9000011201AAFD90DB
:0B0AC0000003120272FBAAF0120E06E7
:010ACB002208
:100EBC00120F1E7BFF7A0A7956120EEA7BFF7A0616
:080ECC0079F9120BAE020ED4FD
:060F7600120CC3020F7013
:050F7C007893E2FF2262
:040F8100120F8522A4
:1000260075F020800E75F010800575F0087D007E55
:10003600007F003392D530D5031202AAEC3340106C
:10004600EF33FFEE33FEED33FDEC33FCD5F0ED225E
:0E005600E5F0247EA2D513CC92E7CDCEFF229A
:10006400EDD2E7CD33EC3392D524814006E4FFFE94
:10007400FDFC22FCE4CFCECDCC24E0501174FF80F3
:10008400EDC3CC13CCCD13CDCE13CECF13CF047090
:07009400F030D5DE0202AAE4
:10084A00020F62E493A3F8E493A34003F68001F253
:10085A0008DFF48029E493A3F85407240CC8C333AF
:10086A00C4540F4420C8834004F456800146F6DF7E
:10087A00E4800B01020408102040809008CAE47E3C
:10088A00019360BCA3FF543F30E509541FFEE49373
:10089A00A360010ECF54C025E060A840B8E493A33A
:1008AA00FAE493A3F8E493A3C8C582C8CAC583CA65
:1008BA00F0A3C8C582C8CAC583CADFE9DEE780BE1D
:0109510000A5
:10009B00E709F608DFFA8046E709F208DFFA803E47
:1000AB0088828C83E709F0A3DFFA8032E309F60834
:1000BB00DFFA8078E309F208DFFA807088828C839C
:1000CB00E309F0A3DFFA806489828A83E0A3F60850
:1000DB00DFFA805889828A83E0A3F208DFFA804C2A
:1000EB0080D280FA80C680D4806980F28033801001
:1000FB0080A680EA809A80A880DA80E280CA80336A
:10010B0089828A83ECFAE493A3C8C582C8CCC583E1
:10011B00CCF0A3C8C582C8CCC583CCDFE9DEE780B1
:10012B000D89828A83E493A3F608DFF9ECFAA9F030
:10013B00EDFB2289828A83ECFAE0A3C8C582C8CC86
:10014B00C583CCF0A3C8C582C8CCC583CCDFEADE9F
:10015B00E880DB89828A83E493A3F208DFF980CC01
:10016B0088F0EF60010E4E60C388F0ED2402B404FA
:10017B000050B9F582EB2402B4040050AF232345A1
:06018B0082239000EB73DB
:10019100BB010689828A83E0225002E722BBFE026C
:0901A100E32289828A83E493229F
:1001AA00BB010CE58229F582E5833AF583E022500A
:1001BA0006E92582F8E622BBFE06E92582F8E22254
:0D01CA00E58229F582E5833AF583E493226E
:1001D700BB010689828A83F0225002F722BBFE0107
:0201E700F32201
:1001E900F8BB010DE58229F582E5833AF583E8F04C
:1001F900225006E92582C8F622BBFE05E92582C8F8
:02020900F222DF
:10020B00EF8DF0A4A8F0CF8CF0A428CE8DF0A42E07
:02021B00FE22C1
:10021D00BC000BBE0029EF8DF084FFADF022E4CCC5
:10022D00F875F008EF2FFFEE33FEEC33FCEE9DEC8E
:10023D00984005FCEE9DFE0FD5F0E9E4CEFD22EDD4
:10024D00F8F5F0EE8420D21CFEADF075F008EF2F1E
:10025D00FFED33FD4007985006D5F0F222C398FD0F
:05026D000FD5F0EA22AC
:10027200BB0110E58229F582E5833AF583E0F5F0CA
:10028200A3E0225009E92582F886F008E622BBFEA7
:100292000AE92582F8E2F5F008E222E5832AF583ED
:0802A200E993F5F0A3E99322B2
:100D6200C2D5E830E70FB2D5E4C39BFBE49AFAE4BC
:100D720099F9E498F8EC30E717B2D5120D981202FF
:100D8200FAE4C39BFBE49AFAE499F9E498F8800345
:100D92001202FA30D50DE4C39FFFE49EFEE49DFDEE
:040DA200E49CFC22AF
:0E02AA00C3E49FFFE49EFEE49DFDE49CFC2265
:0602B8008A838982E473D1
:1002BE0075F008758200EF2FFFEE33FECD33CDCCF7
:1002CE0033CCC58233C5829BED9AEC99E58298407A
:1002DE000CF582EE9BFEED9AFDEC99FC0FD5F0D657
:1002EE00E4CEFBE4CDFAE4CCF9A88222B800C1B981
:1002FE000059BA002DEC8BF084CFCECDFCE5F0CBBF
:10030E00F97818EF2FFFEE33FEED33FDEC33FCEBF7
:10031E0033FB10D703994004EB99FB0FD8E5E4F9B2
:10032E00FA227818EF2FFFEE33FEED33FDEC33FC9F
:10033E00C933C910D7059BE99A4007EC9BFCE99A93
:10034E00F90FD8E0E4C9FAE4CCFB2275F010EF2FD8
:10035E00FFEE33FEED33FDCC33CCC833C810D707D8
:10036E009BEC9AE899400AED9BFDEC9AFCE899F813
:0E037E000FD5F0DAE4CDFBE4CCFAE4C8F922A6
:00000001FF
