:030000000207D91B
:0C07D900787FE4F6D8FD75810702082047
:0E0865008218000083150000008302000000CE
:1005A400EF54F0C4540FFCEF540FFFEC14603814F4
:1005B400605A14607C14700302065A240460030217
:1005C400067EAE80ED600F7401A807088002C33375
:1005D400D8FC4EFE800E7401A807088002C333D8ED
:1005E400FCF45EFE8E8022AE90ED600F7401A807CD
:1005F400088002C333D8FC4EFE800E7401A807089D
:100604008002C333D8FCF45EFE8E9022AEA0ED606F
:100614000F7401A807088002C333D8FC4EFE800E75
:100624007401A807088002C333D8FCF45EFE8EA0D0
:1006340022AEB0ED600F7401A807088002C333D85E
:10064400FC4EFE800E7401A807088002C333D8FC58
:10065400F45EFE8EB022AEE8ED600F7401A80708C8
:100664008002C333D8FC4EFE800E7401A8070880B4
:0A06740002C333D8FCF45EFE8EE8EA
:01067E002259
:100B5300EF54F0C4540FFDEF540FFFED14601D1458
:100B6300602A1460371460442404704E7401A8078B
:100B7300088002C333D8FC5580FE803E7401A80769
:100B8300088002C333D8FC5590FE802E7401A80759
:100B9300088002C333D8FC55A0FE801E7401A80749
:100BA300088002C333D8FC55B0FE800E7401A80739
:0C0BB300088002C333D8FC55E8FEAF06F2
:010BBF002213
:0D0F0500AE05EEC454F0FEEF540F2EF5893A
:010F120022BC
:0B0F2F00758CFC758A66D28CD2A9225A
:03000B00020E588A
:100E5800C0E0C0D075D000C000758CFC758A66787B
:100E680019E22401F218E23400F2D000D0D0D0E028
:010E78003247
:060F4200EF24FF92AF2234
:080003007818E2FE08E2FF227A
:100E3400EFC3940240037FFF22C001EF75F008A4C2
:100E44002405F9E4A801FC7DFED001FE7F0812010F
:040E54006B7F00228E
:0D000E00EF75F008A42405F9E4FA7BFE224A
:10074B00AA07EAC3940240037FFF2278A9E2FFEADB
:10075B0075F008A42405F8EFF2EA75F008A4240C50
:10076B00F87401F2EA75F008A4240AF8EBF2EA75C2
:10077B00F008A4240BF8E4F2EDFEEA75F008A424CB
:10078B0009F8E4EEF2EF6031ED700EEA75F008A4B3
:10079B002407F8E2FFE4FD800CEA75F008A42407B7
:1007AB00F8E2FF7D011205A4EA75F008A42408F80D
:1007BB00E2FFF46016E4FD800FEA75F008A424084C
:0E07CB00F8E2FFF460057D011205A47F002214
:0A0A6A0078A5EBF208EAF208E9F2C1
:100A74007C037DE812020BAB07AA06E4F9F8FF7EBB
:100A8400107D0EFC120D1DEC12002612006478A8D5
:100A9400EEF208EFF278A5E2F908E2FA08E2781536
:100AA400C9F208EAF208E9F2C374FF9FFB74FF9EDF
:100AB400FA7C007DFFAF03FE12021D7801EFF27C89
:100AC400007DFFAF03AE0212021DAF057800EFF206
:0A0AD40008E2F58D8F8BD28ED2ABB5
:010ADE0022F5
:05001E00C2ABC28E22FE
:03001B000204B824
:1004B800C0E0C0F0C083C082C0D075D000C000C00A
:0D04C80001C002C003C004C005C006C0078B
:1004D50078F9E4F278F9E2FFC3940240030205805B
:1004E500EF75F008A42405F8E2700302057878F9A1
:1004F500E2FF75F008A4240AF8E2FE602EEF75F01D
:1005050008A4240BF8E2C39E40217815E2FB08E21B
:10051500FA08E24A4B605C78F9E2FF781508E2FADE
:1005250008E2F5828A831202BC804878F9E2FE75FA
:10053500F008A42406F8E2FFEE75F008A4240CF8F0
:10054500E2FD1205A478F9E2FF75F008A4240CF881
:10055500E2700BEF75F008A4240BF8E204F278F9C9
:10056500E275F008A4240CF8E270047F0180027F94
:1005750000EFF278F9E204F20204D97801E2F58D90
:0405850018E2F58BF8
:10058900D007D006D005D004D003D002D001D000C6
:0B059900D0D0D082D083D0F0D0E03270
:030F5D007F0122EF
:100DC1007802EBF208EAF208E9F2E4FF120F427549
:100DD100985075C83475CBFF75CADB85CBCD85CAF4
:070DE100CCD2AC0F020F425F
:0A0D610078F6EBF208EAF208E9F276
:100D6B00E4FFEFC39D501EC29978F6E2FB08E2FA4E
:100D7B0008E2F98F827583001201AAF5993099FD6B
:050D8B00C2990F80DD9C
:010D90002240
:03002300020BC00D
:100BC000C0E0C0F0C083C082C0D075D000C000C0FB
:100BD00001C002C003C004C005C006C00730981F92
:100BE0007802E2FB08E2FA08E24A4B601078020859
:100BF000E2FA08E2F5828A83AF991202BCC298D069
:100C000007D006D005D004D003D002D001D000D048
:0A0C1000D0D082D083D0F0D0E032C3
:0F0EF6007D017F01120F05120F2F7F01020F42A6
:080F3A00120E94120F4E80FB11
:10087300812300861A00000000000083200000008E
:100EE600782008E2FA08E2F5828A83E4FD0202BC71
:100C1A007820EBF208EAF208E9F2E4789DF278A487
:100C2A00F278A2F208F278A074FFF2789E7427F2A2
:100C3A00087425F27BFE7A00799DE4FF120E34785F
:100C4A0023E204F2789E7426F2087424F27BFE7A78
:100C5A0000799D7F01120E347823E204F27BFF7A39
:0A0C6A000E79E67F017E00020A6A9F
:100ED500EF75F003A4241AF8EBF208EAF208E9F238
:010EE50022EA
:100DE80078A3EFF208EDF208EBF2E4FF120F427875
:100DF800A3E2FF08E2FD08E2FB78A97401F21207FA
:060E08004B7F01020F42C6
:100E7900789DEFF2E4FF120F42789DE2FFE478A932
:0B0E8900F2FBFD12074B7F01020F423D
:100CCD00E4789DF2789DE2FFC394025042EF75F0F7
:100CDD0003A4241AF8E2FB08E2FA08E24A4B602862
:100CED00EF75F003A4241AF808E2FA08E2F91202EB
:100CFD00B8EF6014789DE2FF782008E2FA08E2F57B
:0F0D0D00828A837D011202BC789DE204F280B5D8
:010D1C0022B4
:10088300812800A0402900000000000000000000B3
:100893000000000000000000000000000000000055
:1008A3000000000000000000000000000000000045
:1008B3000000000000000000000000000000000035
:1008C300000000000000816D0081250082260000E9
:0E08D300819700836A00000081690081240083
:060D91007BFEE22405FDDB
:0A0D970078F6EBF208EAF208E9F240
:100DA100E4FFFEEEC39D501778F6E2FB08E2FA0875
:0F0DB100E2F98E827583001201AA2FFF0E80E4F3
:010DC0002210
:0A08ED0078B0EBF208EAF208E9F235
:1008F7007BFE7A0079B674BC1201D790000174FEB2
:100907001201E978B3E2FE9000021201E978B4E23D
:100917009000031201E9900004EF1201E978B5E2B3
:10092700600FE92404F9E43AFA12019144801201B4
:10093700D7EEFF7E0078BB7C007DFEC00078B0E27A
:10094700FB08E2FA08E2F9D00012016B7A0079B6E7
:1009570078B3120D9178B3E2FE24BBF8EFF27BFE79
:0B0967007A0079B6EE2406FD020D6157
:100E0E007869E278ADF208EFF27BFE7A0079AD7880
:100E1E00B37402F27825E2FF04F278B4EFF2E4083C
:060E2E00F27F020208ED54
:0A038C0078A3EBF208EAF208E9F2A8
:10039600E4FFF978A8C9F208F208E9F278A3E2FBCB
:1003A60008E2FA08E2F90F9000001201AA7869F251
:1003B6000F9000011201AA786EF20F90000212014E
:1003C600AA78ABF20F9000031201AA78ACF27E0075
:1003D600E92FF9EE3AFA78A8EBF208EAF208E9F220
:1003E600786EE2D3940A40030204B2E478A7F218C6
:1003F600F2786EE2FF78A7E2FEC39F4003020498FC
:1004060008E2FB08E2FA08E2F978A6E2FF04F28FB6
:10041600827583001201AAFFEE25E025E0246FF81D
:10042600EFF278A6E2FF04F28F827583001201AA2A
:10043600FFEE25E025E02470F8EFF278A6E2FF044F
:10044600F28F827583001201AAFF78A7E225E025C4
:10045600E02471F8E4F208EFF278A6E2FF04F28FE6
:10046600827583001201AAFD7C0078A7E2FB25E0D5
:1004760025E02471F909E3FEE42DFFEC3EF8EB25B7
:10048600E025E02471C8F208EFF278A7E204F20250
:1004960003F77BFE7A00796EC002786A08E2FA08F2
:1004A600E2F5828A83D0027F010202BC7F01120E2E
:0104B6000E37
:0104B7002222
:04097200789DEFF28B
:10097600786DE2C394404002E4F2789DE2FF786D20
:10098600E2FE04F274292EF8EFF2786DE224FE609E
:100996000E14601B24027027EF64BC604D80471262
:1009A6000F59789DE2FE6F6041EEF4603D80377826
:1009B6009DE2FFD3943B4002802C7824EFF222780C
:1009C60024E22406FFE433FE786DE2B5071CE4B5A5
:1009D60006187A0079297824120D91789DE2B507D8
:0A09E6000578287401F2E4786DF240
:0109F00022E4
:10067F0078A0E4F208F208F27828E2700302074A41
:10068F007BFE7A007929789DEBF208EAF208E9F20D
:10069F009000041201AA30E722E478B3F2789DE2C9
:1006AF00FB08E2FA08E2F99000031201AA78B4F20B
:1006BF00E408F2FBFAF97F041208ED789DE2FB08DB
:1006CF00E2FA08E2F99000041201AA547FFF1460C5
:1006DF00181460312402705F1200037826EEF208BE
:1006EF00EFF278977401F2804E7B007A007900C0A8
:1006FF0002786A08E2FA08E2F5828A83D002E4FF00
:10070F001202BC8032789DE2FB08E2FA08E224056F
:10071F00F9E43AFA08EBF208EAF208E9F2120F5498
:10072F00EF700F78A0E2FB08E2FA08E2F912038CEF
:0B073F0080057F02120E0EE47828F205
:01074A00228C
:100C74007897E260531200037826E2FC08E2FDC391
:100C8400EF9DFDEE9CFCC004C005120F597E007C54
:100C9400037DE812020BD005D004D3ED9FEC9E40F7
:100CA40027120F59789DEFF27BFE7A00799D78B375
:100CB4007401F27825E2FF04F278B4EFF2E408F26A
:080CC400FF1208EDE47897F23D
:010CCC002205
:100EC200786AEBF208EAF208E9F27BFF7A097972B2
:030ED200020DC14D
:060F480012067F020C748A
:0B08E100839A000000819800819900BC
:0E0F1300E4FF120B53EF70037F01227F0022D8
:0E0F21007F01120B53EF60037F01227F00223D
:100EAC007BFF7A0F7913E4FF120ED57BFF7A0F7953
:060EBC00217F01020ED5AA
:1009F100E4FEED70030E8027EDB40123789AE2FB4B
:100A010008E2FA08E24A4B6016789AE2FB08E2FA39
:100A110008E2F990000212027245F070027E01EEC6
:100A21006046120E797898E2700F08F2FF120E0EEE
:100A3100789AE4F208F208F222789CE22404F2188F
:100A4100E23400F27898E214F2789AE2FB08E2FAD2
:100A510008E2F9120191FF9000011201AAFD900034
:080A610002120272FB120DE803
:010A6900226A
:0A0ADF00789DEBF208EAF208E9F254
:100AE90008E4F208F208F2EF14705E789DE2F90862
:100AF900E2FA08E208C9F208EAF208E9F278A0E2A3
:100B0900FB08E2FA08E22401F9E43AFA789AEBF2EE
:100B190008EAF208E9F278A0E2FB08E2FA08E2F949
:100B2900120191147898F2087401F208E2FB08E2C4
:100B3900FA08E2F9120191FF9000011201AAFD9051
:090B49000002120272FB120DE819
:010B52002280
:100E9400120EF67BFF7A0A79DF120EC27BFF7A0903
:080EA40079F1120C1A020EACE8
:060F4E00120CCD020F4859
:050F54007899E2FF2284
:040F5900120F5D22F4
:1000260075F020800E75F010800575F0087D007E55
:10003600007F003392D530D5031202AAEC3340106C
:10004600EF33FFEE33FEED33FDEC33FCD5F0ED225E
:0E005600E5F0247EA2D513CC92E7CDCEFF229A
:10006400EDD2E7CD33EC3392D524814006E4FFFE94
:10007400FDFC22FCE4CFCECDCC24E0501174FF80F3
:10008400EDC3CC13CCCD13CDCE13CECF13CF047090
:07009400F030D5DE0202AAE4
:1007E500020F3AE493A3F8E493A34003F68001F2E1
:1007F50008DFF48029E493A3F85407240CC8C33315
:10080500C4540F4420C8834004F456800146F6DFE3
:10081500E4800B0102040810204080900865E47E06
:10082500019360BCA3FF543F30E509541FFEE493D8
:10083500A360010ECF54C025E060A840B8E493A39F
:10084500FAE493A3F8E493A3C8C582C8CAC583CACA
:10085500F0A3C8C582C8CAC583CADFE9DEE780BE82
:0108EC00000B
:10009B00E709F608DFFA8046E709F208DFFA803E47
:1000AB0088828C83E709F0A3DFFA8032E309F60834
:1000BB00DFFA8078E309F208DFFA807088828C839C
:1000CB00E309F0A3DFFA806489828A83E0A3F60850
:1000DB00DFFA805889828A83E0A3F208DFFA804C2A
:1000EB0080D280FA80C680D4806980F28033801001
:1000FB0080A680EA809A80A880DA80E280CA80336A
:10010B0089828A83ECFAE493A3C8C582C8CCC583E1
:10011B00CCF0A3C8C582C8CCC583CCDFE9DEE780B1
:10012B000D89828A83E493A3F608DFF9ECFAA9F030
:10013B00EDFB2289828A83ECFAE0A3C8C582C8CC86
:10014B00C583CCF0A3C8C582C8CCC583CCDFEADE9F
:10015B00E880DB89828A83E493A3F208DFF980CC01
:10016B0088F0EF60010E4E60C388F0ED2402B404FA
:10017B000050B9F582EB2402B4040050AF232345A1
:06018B0082239000EB73DB
:10019100BB010689828A83E0225002E722BBFE026C
:0901A100E32289828A83E493229F
:1001AA00BB010CE58229F582E5833AF583E022500A
:1001BA0006E92582F8E622BBFE06E92582F8E22254
:0D01CA00E58229F582E5833AF583E493226E
:1001D700BB010689828A83F0225002F722BBFE0107
:0201E700F32201
:1001E900F8BB010DE58229F582E5833AF583E8F04C
:1001F900225006E92582C8F622BBFE05E92582C8F8
:02020900F222DF
:10020B00EF8DF0A4A8F0CF8CF0A428CE8DF0A42E07
:02021B00FE22C1
:10021D00BC000BBE0029EF8DF084FFADF022E4CCC5
:10022D00F875F008EF2FFFEE33FEEC33FCEE9DEC8E
:10023D00984005FCEE9DFE0FD5F0E9E4CEFD22EDD4
:10024D00F8F5F0EE8420D21CFEADF075F008EF2F1E
:10025D00FFED33FD4007985006D5F0F222C398FD0F
:05026D000FD5F0EA22AC
:10027200BB0110E58229F582E5833AF583E0F5F0CA
:10028200A3E0225009E92582F886F008E622BBFEA7
:100292000AE92582F8E2F5F008E222E5832AF583ED
:0802A200E993F5F0A3E99322B2
:100D1D00C2D5E830E70FB2D5E4C39BFBE49AFAE401
:100D2D0099F9E498F8EC30E717B2D5120D53120289
:100D3D00FAE4C39BFBE49AFAE499F9E498F880038A
:100D4D001202FA30D50DE4C39FFFE49EFEE49DFD33
:040D5D00E49CFC22F4
:0E02AA00C3E49FFFE49EFEE49DFDE49CFC2265
:0602B8008A838982E473D1
:1002BE0075F008758200EF2FFFEE33FECD33CDCCF7
:1002CE0033CCC58233C5829BED9AEC99E58298407A
:1002DE000CF582EE9BFEED9AFDEC99FC0FD5F0D657
:1002EE00E4CEFBE4CDFAE4CCF9A88222B800C1B981
:1002FE000059BA002DEC8BF084CFCECDFCE5F0CBBF
:10030E00F97818EF2FFFEE33FEED33FDEC33FCEBF7
:10031E0033FB10D703994004EB99FB0FD8E5E4F9B2
:10032E00FA227818EF2FFFEE33FEED33FDEC33FC9F
:10033E00C933C910D7059BE99A4007EC9BFCE99A93
:10034E00F90FD8E0E4C9FAE4CCFB2275F010EF2FD8
:10035E00FFEE33FEED33FDCC33CCC833C810D707D8
:10036E009BEC9AE899400AED9BFDEC9AFCE899F813
:0E037E000FD5F0DAE4CDFBE4CCFAE4C8F922A6
:00000001FF
