:030000000206896C
:0C068900787FE4F6D8FD7581070206D0EA
:0907FC00821B00008302000000D2
:10044D00EF54F0C4540FFCEF540FFFEC146038144C
:10045D00605A14607C1470030205032404600302C7
:10046D000527AE80ED600F7401A807088002C33325
:10047D00D8FC4EFE800E7401A807088002C333D845
:10048D00FCF45EFE8E8022AE90ED600F7401A80725
:10049D00088002C333D8FC4EFE800E7401A80708F5
:1004AD008002C333D8FCF45EFE8E9022AEA0ED60C8
:1004BD000F7401A807088002C333D8FC4EFE800ECE
:1004CD007401A807088002C333D8FCF45EFE8EA029
:1004DD0022AEB0ED600F7401A807088002C333D8B7
:1004ED00FC4EFE800E7401A807088002C333D8FCB1
:1004FD00F45EFE8EB022AEE8ED600F7401A8070821
:10050D008002C333D8FC4EFE800E7401A80708800C
:0A051D0002C333D8FCF45EFE8EE842
:0105270022B1
:10078F00EF54F0C4540FFDEF540FFFED14601D1420
:10079F00602A1460371460442404704E7401A80753
:1007AF00088002C333D8FC5580FE803E7401A80731
:1007BF00088002C333D8FC5590FE802E7401A80721
:1007CF00088002C333D8FC55A0FE801E7401A80711
:1007DF00088002C333D8FC55B0FE800E7401A80701
:0C07EF00088002C333D8FC55E8FEAF06BA
:0107FB0022DB
:0D0BFE00AE05EEC454F0FEEF540F2EF58945
:010C0B0022C6
:0B0C3400758CFC758A66D28CD2A92258
:03000B00020BBD28
:100BBD00C0E0C0D075D000C000758CFC758A667819
:100BCD001CE22401F218E23400F2D000D0D0D0E0C3
:010BDD0032E5
:060C5000EF24FF92AF2229
:08000300781BE2FE08E2FF2277
:100B9900EFC3940240037FFF22C001EF75F00BA45D
:100BA9002405F9E4A801FC7DFED001FE7F0B1201AA
:040BB9006B7F00222C
:0D000E00EF75F00BA42405F9E4FA7BFE2247
:10052800786FEFF2C3940240037FFF227872E2FFF4
:10053800786FE2FE75F00BA42405F8EFF2EE75F083
:100548000BA4240CF87401F2EE75F00BA4240AF83D
:10055800EBF2EE75F00BA4240BF8E4F2EDFCEE756B
:10056800F00BA42409F8ECF27873E2FB08E2FA082D
:10057800E2F9786FE2FE75F00BA4240DF8EBF208AF
:10058800EAF208E9F2EF6035ED700EEE75F00BA4B3
:100598002407F8E2FFE4FD800E786FE275F00BA403
:1005A8002407F8E2FF7D0112044D786FE275F00B25
:1005B800A42408F8E2FFF46018E4FD8011786FE2E3
:1005C80075F00BA42408F8E2FFF460057D0112041D
:0405D8004D7F002231
:1008BD007C037DE812020BAB07AA06E4F9F8FF7E74
:1008CD00107D0EFC120A0DEC120026120064AB070F
:1008DD00AA06C374FF9BFF74FF9AFE7C007DFF1276
:1008ED00021D7801EFF2C374FF9BFF74FF9AFE7C2B
:1008FD00007DFF12021DAF057800EFF208E2F58DC5
:06090D008F8BD28ED2ABED
:0109130022C1
:05001E00C2ABC28E22FE
:03001B0002035489
:10035400C0E0C0F0C083C082C0D075D000C000C06F
:0D03640001C002C003C004C005C006C007F0
:1003710078B9E4F278B9E2FFC39402400302042998
:10038100EF75F00BA42405F8E2700302042178B99B
:10039100E2FF75F00BA4240AF8E2FE603BEF75F072
:1003A1000BA4240BF8E2C39E402E78B9E275F00B42
:1003B100A4240DF8E2FB08E2FA08E24A4B606178F6
:1003C100B9E2FF75F00BA4240DF808E2FA08E2F592
:1003D100828A83120284804878B9E2FE75F00BA408
:1003E1002406F8E2FFEE75F00BA4240CF8E2FD12EE
:1003F100044D78B9E2FF75F00BA4240CF8E2700B00
:10040100EF75F00BA4240BF8E204F278B9E275F071
:100411000BA4240CF8E270047F0180027F00EFF24C
:1004210078B9E204F20203757801E2F58D18E2F57C
:010431008B3F
:10043200D007D006D005D004D003D002D001D0001E
:0B044200D0D0D082D083D0F0D0E032C8
:030C60007F0122EF
:100B4D007802EBF208EAF208E9F2E4FF120C5075B4
:100B5D00985075C83475CBFF75CADB85CBCD85CA6A
:070B6D00CCD2AC0F020C50CA
:0A0AC00078B6EBF208EAF208E9F25A
:100ACA00E4FFEFC39D501EC29978B6E2FB08E2FA32
:100ADA0008E2F98F827583001201AAF5993099FD0F
:050AEA00C2990F80DD40
:010AEF0022E4
:030023000208636D
:10086300C0E0C0F0C083C082C0D075D000C000C05B
:1008730001C002C003C004C005C006C00730981FF2
:100883007802E2FB08E2FA08E24A4B6010780208B9
:10089300E2FA08E2F5828A83AF99120284C298D001
:1008A30007D006D005D004D003D002D001D000D0A9
:0A08B300D0D082D083D0F0D0E03224
:0F0BEF007D017F01120BFE120C347F01020C50AE
:080C4800120C28120C5680FB6F
:0B080500812300861D000000000000A1
:10091400E47869F27870F2786EF2F97871C9F208C5
:10092400F208E9F2E4786FF2786C74FFF2786A7492
:1009340027F2087425F27BFE7A007969E4FF120B32
:10094400997823E204F2786A7426F2087424F27B1C
:10095400FE7A0079697F01120B997823E204F27F11
:06096400017E000208BD47
:100BDE00EF75F003A4241DF8EBF208EAF208E9F22F
:010BEE0022E4
:100A51007869EFF208EDF208EBF2E4FF120C50783E
:100A610069E2FF08E2FD78727401F2786CE2F9083C
:100A7100E2FA08E27873C9F208EAF208E9F2786B5F
:0A0A8100E2FB1205287F01020C5071
:100B7400786AEFF2E4FF120C50786AE2FFE47872CC
:100B8400F2F908C9F208F208E9F2E4FBFD120528BB
:050B94007F01020C507E
:1009BE00E47869F27869E2FFC394025041EF75F072
:1009CE0003A4241DF8E2FB08E2FA08E24A4B602772
:1009DE00EF75F003A4241DF808E2FA08E2F91202FA
:1009EE0080EF60137869E2FF12000E12019160072A
:0E09FE007869E2FF120B747869E204F280B6A9
:010A0C0022C7
:10081000812600A04027000000000000000000002A
:1008200000000000000000000000000000000000C8
:1008300000000000000000000000000000000000B8
:1008400000000000000000000000000000000000A8
:0F08500000000000000081670081250081240066
:060AF0007BFEE22405FD7F
:0A0AF60078B6EBF208EAF208E9F224
:100B0000E4FFFEEEC39D501778B6E2FB08E2FA0858
:0F0B1000E2F98E827583001201AA2FFF0E80E496
:010B1F0022B3
:0D05DC00786CEFF208EBF208EAF208E9F2A1
:1005E90078B374FEF2087400F2087473F278B3E217
:1005F900FB08E2FA08E2F974BC1201D7120C5C7824
:10060900B3E2FB08E2FA08E2F9900001EF1201E90E
:100619007870E2FF9000021201E97871E29000031C
:100629001201E9786CE29000041201E97872E26043
:100639001778B3E2FB08E2FA08E22404F9E43AFA8B
:1006490012019144801201D77E0078787C007DFEEA
:10065900C000786DE2FB08E2FA08E2F9D000120165
:100669006B7A0079737870120AF07870E2FE247858
:10067900F8EFF27BFE7A007973EE2406FD020AC0D8
:040715007869EFF21E
:100719007867E2C394404002E4F27869E2FF7867BF
:10072900E2FE04F274272EF8EFF27867E224FE6005
:100739000E14601624027022EF64BC6048804212D5
:100749000C5C7869E26F603D80377869E2FFD39489
:100759003B4002802C7824EFF2227824E22406FF21
:10076900E433FE7867E2B5071CE4B506187A007928
:10077900277824120AF07869E2B50705782674010A
:05078900F2E47867F2C4
:01078E002248
:10096A007826E2604E7BFE7A0079277869EBF208F6
:10097A00EAF208E9F29000041201AA30E721E478C9
:10098A0070F27869E2FB08E2FA08E2F990000312D1
:10099A0001AA7871F2E408F2FBFAF9FF1205DC7891
:1009AA0069E2FB08E2FA08E2F99000041201AAE4FB
:0309BA007826F2AA
:0109BD002217
:090C3F007BFF7A077915020B4DC9
:030C630002096A19
:03085F00816800AD
:100B2000120B747868E2FD7F1312044D7868E2704E
:100B30001B786C74FFF208740BF2087420F27B329D
:0C0B40007D017F01120A5178687401F2F7
:010B4C002286
:0E0C0C00E4FF12078FEF70037F01227F0022AA
:0E0C1A007F0112078FEF60037F01227F00220F
:100A8B007BFF7A0C790CE4FF120BDE7BFF7A0C797F
:100A9B001A7F01120BDE786CE4F208F208F2FB7D90
:100AAB0001FF120A51786CE4F208F208F2FB7D01A7
:050ABB007F01020A5159
:0C0C2800120BEF120C3F120914020A8B91
:060C56001209BE020C634E
:040C5C00120C6022F4
:1000260075F020800E75F010800575F0087D007E55
:10003600007F003392D530D503120272EC334010A4
:10004600EF33FFEE33FEED33FDEC33FCD5F0ED225E
:0E005600E5F0247EA2D513CC92E7CDCEFF229A
:10006400EDD2E7CD33EC3392D524814006E4FFFE94
:10007400FDFC22FCE4CFCECDCC24E0501174FF80F3
:10008400EDC3CC13CCCD13CDCE13CECF13CF047090
:07009400F030D5DE0202721C
:10069500020C48E493A3F8E493A34003F68001F227
:1006A50008DFF48029E493A3F85407240CC8C33366
:1006B500C4540F4420C8834004F456800146F6DF35
:1006C500E4800B01020408102040809007FCE47EC2
:1006D500019360BCA3FF543F30E509541FFEE4932A
:1006E500A360010ECF54C025E060A840B8E493A3F1
:1006F500FAE493A3F8E493A3C8C582C8CAC583CA1C
:10070500F0A3C8C582C8CAC583CADFE9DEE780BED3
:010862000095
:10009B00E709F608DFFA8046E709F208DFFA803E47
:1000AB0088828C83E709F0A3DFFA8032E309F60834
:1000BB00DFFA8078E309F208DFFA807088828C839C
:1000CB00E309F0A3DFFA806489828A83E0A3F60850
:1000DB00DFFA805889828A83E0A3F208DFFA804C2A
:1000EB0080D280FA80C680D4806980F28033801001
:1000FB0080A680EA809A80A880DA80E280CA80336A
:10010B0089828A83ECFAE493A3C8C582C8CCC583E1
:10011B00CCF0A3C8C582C8CCC583CCDFE9DEE780B1
:10012B000D89828A83E493A3F608DFF9ECFAA9F030
:10013B00EDFB2289828A83ECFAE0A3C8C582C8CC86
:10014B00C583CCF0A3C8C582C8CCC583CCDFEADE9F
:10015B00E880DB89828A83E493A3F208DFF980CC01
:10016B0088F0EF60010E4E60C388F0ED2402B404FA
:10017B000050B9F582EB2402B4040050AF232345A1
:06018B0082239000EB73DB
:10019100BB010689828A83E0225002E722BBFE026C
:0901A100E32289828A83E493229F
:1001AA00BB010CE58229F582E5833AF583E022500A
:1001BA0006E92582F8E622BBFE06E92582F8E22254
:0D01CA00E58229F582E5833AF583E493226E
:1001D700BB010689828A83F0225002F722BBFE0107
:0201E700F32201
:1001E900F8BB010DE58229F582E5833AF583E8F04C
:1001F900225006E92582C8F622BBFE05E92582C8F8
:02020900F222DF
:10020B00EF8DF0A4A8F0CF8CF0A428CE8DF0A42E07
:02021B00FE22C1
:10021D00BC000BBE0029EF8DF084FFADF022E4CCC5
:10022D00F875F008EF2FFFEE33FEEC33FCEE9DEC8E
:10023D00984005FCEE9DFE0FD5F0E9E4CEFD22EDD4
:10024D00F8F5F0EE8420D21CFEADF075F008EF2F1E
:10025D00FFED33FD4007985006D5F0F222C398FD0F
:05026D000FD5F0EA22AC
:100A0D00C2D5E830E70FB2D5E4C39BFBE49AFAE414
:100A1D0099F9E498F8EC30E717B2D5120A431202AF
:100A2D00C2E4C39BFBE49AFAE499F9E498F88003D5
:100A3D001202C230D50DE4C39FFFE49EFEE49DFD7E
:040A4D00E49CFC2207
:0E027200C3E49FFFE49EFEE49DFDE49CFC229D
:060280008A838982E47309
:1002860075F008758200EF2FFFEE33FECD33CDCC2F
:1002960033CCC58233C5829BED9AEC99E5829840B2
:1002A6000CF582EE9BFEED9AFDEC99FC0FD5F0D68F
:1002B600E4CEFBE4CDFAE4CCF9A88222B800C1B9B9
:1002C6000059BA002DEC8BF084CFCECDFCE5F0CBF7
:1002D600F97818EF2FFFEE33FEED33FDEC33FCEB30
:1002E60033FB10D703994004EB99FB0FD8E5E4F9EB
:1002F600FA227818EF2FFFEE33FEED33FDEC33FCD8
:10030600C933C910D7059BE99A4007EC9BFCE99ACB
:10031600F90FD8E0E4C9FAE4CCFB2275F010EF2F10
:10032600FFEE33FEED33FDCC33CCC833C810D70710
:100336009BEC9AE899400AED9BFDEC9AFCE899F84B
:0E0346000FD5F0DAE4CDFBE4CCFAE4C8F922DE
:00000001FF
