:03000000020A19D8
:0C0A1900787FE4F6D8FD75816A020A605F
:0E08F000026900000366000000034B000000D8
:1004E50075F00CA4244FF8E6FFEE75F00CA4245328
:0304F500F8E6FD29
:1004F800EF54F0C4540FFCEF540FFFEC14603814A1
:10050800605A14607C1470030205AE240460030270
:1005180005D2AE80ED600F7401A807088002C333CE
:10052800D8FC4EFE800E7401A807088002C333D899
:10053800FCF45EFE8E8022AE90ED600F7401A80779
:10054800088002C333D8FC4EFE800E7401A8070849
:100558008002C333D8FCF45EFE8E9022AEA0ED601C
:100568000F7401A807088002C333D8FC4EFE800E22
:100578007401A807088002C333D8FCF45EFE8EA07D
:1005880022AEB0ED600F7401A807088002C333D80B
:10059800FC4EFE800E7401A807088002C333D8FC05
:1005A800F45EFE8EB022AEE8ED600F7401A8070875
:1005B8008002C333D8FC4EFE800E7401A807088061
:0A05C80002C333D8FCF45EFE8EE897
:0105D2002206
:100C1200EF54F0C4540FFDEF540FFFED14601D1498
:100C2200602A1460371460442404704E7401A807CB
:100C3200088002C333D8FC5580FE803E7401A807A9
:100C4200088002C333D8FC5590FE802E7401A80799
:100C5200088002C333D8FC55A0FE801E7401A80789
:100C6200088002C333D8FC55B0FE800E7401A80779
:0C0C7200088002C333D8FC55E8FEAF0632
:010C7E002253
:0D106D00AE05EEC454F0FEEF540F2EF589D1
:01107A002253
:0B109700758CFC758A66D28CD2A922F1
:03000B0002103AA6
:10103A00C0E0758CFC758A66056AE56A7002056906
:03104A00D0E032C1
:0610A200EF24FF92AF22D3
:05001E00AE69AF6A228B
:100E560090000CEBF0A3EAF0A3E9F0EFC394024094
:100E6600037FFF22EF75F00CA4244EF9E4A801FCE1
:100E7600FD90000CE0FBA3E0FAA3E0F97E007F0CF6
:100E860012016B90000CE0FBA3E0FAA3E0F99000DE
:0D0E9600031201AAFFE4FD1204F87F002200
:0C000E00EF75F00CA4244EF9E4FAFB227C
:10084800A907E9C3940240037FFF2290000EE0FF4E
:10085800E975F00CA4244EF8A607E975F00CA42459
:1008680053F8E4F6AE02AF03E975F00CA42456F889
:10087800A60608A607E975F00CA42458F8E4F608BB
:10088800F6E975F00CA42452F8A605E975F00CA455
:100898002454F87601E975F00CA42455F8E4F6E040
:1008A8006031ED700EE975F00CA42450F8E6FF7D78
:1008B80001800CE975F00CA42450F8E6FFE4FD1261
:1008C80004F8E975F00CA42451F8E6FFF460167DED
:1008D80001800FE975F00CA42451F8E6FFF46005D7
:0808E800E4FD1204F87F002278
:0B0BA40090000CEBF0A3EAF0A3E9F0D6
:100BAF007C037DE812020BAB07AA06E4F9F8FF7E7F
:100BBF00107D0EFC120EA3EC1200261200649000A2
:100BCF000FEEF0A3EFF090000CE0FBA3E0FAA3E030
:100BDF008B668A67F568C374FF9FFB74FF9EFA7C70
:100BEF00007DFFAF03FE12021D8F4A7C007DFFAF19
:100BFF0003AE0212021D8D49854A8D85498BD28E17
:020C0F00D2AB66
:010C110022C0
:0510BA00C2ABC28E2252
:100DAD00AB07EB75F00CA42456F8E6FE08E6FF7CC5
:100DBD00007D0A12021DEB75F00CA42458F8E6FC18
:100DCD0008E6C39FEC9E402BEB75F00CA42456F85F
:100DDD00E6FE08E6FF7C007D5A12020B7D641202CE
:100DED001DEB75F00CA42458F8E6FC08E6D39FEC37
:090DFD009E40037F0A227F0022C0
:03001B000203A23B
:1003A200C0E0C0F0C083C082C0D075D000C000C021
:0D03B20001C002C003C004C005C006C007A2
:1003BF0090005CE4F090005CE0FFC3940240030205
:1003CF0004C4EF75F00CA4244EF8E670030204BBCE
:1003DF00E075F00CA42456F8E6FC08E6FD4C602A04
:1003EF00EF75F00CA42458F8E6FE08E6C39DEE9CCA
:1003FF004018E5684567456670030204BBE08568F1
:10040F00828567831202D20204BB90005CE0FF7505
:10041F00F00CA42454F8E6605A120DADE0FE75F00E
:10042F000CA42455F8E6C39F403BE0FF7600EF1283
:10043F0004E5E0FF75F00CA42453F8E6700FEF7598
:10044F00F00CA42458F80806E61870010690005C1A
:10045F00E075F00CA42453F8E670047F0180027F4E
:10046F0000A607804790005CE075F00CA42455F8B7
:10047F0006803990005CE0FE1204E5E0FF75F00C99
:10048F00A42453F8E6700FEF75F00CA42458F80865
:10049F0006E61870010690005CE075F00CA424537A
:1004AF00F8E670047F0180027F00A60790005CE0F1
:0B04BF0004F00203C4854A8D85498BC0
:1004CA00D007D006D005D004D003D002D001D00086
:0B04DA00D0D0D082D083D0F0D0E03230
:0310C3007F012288
:100F9F008B4B8A4C894DE4FF1210A275985075C87F
:100FAF003475CBFF75CADB85CBCD85CACCD2AC0FE0
:030FBF000210A27B
:0B0EE700900059EBF0A3EAF0A3E9F043
:100EF200E4FFEFC39D501FC299900059E0FBA3E0AD
:100F0200FAA3E0F98F827583001201AAF59930994C
:060F1200FDC2990F80DC16
:010F180022B6
:03002300020E06C4
:100E0600C0E0C0F0C083C082C0D075D000C000C0B2
:100E160001C002C003C004C005C006C00730981553
:100E2600E54D454C454B600B854D82854C83AF990E
:100E36001202D2C298D007D006D005D004D003D073
:100E460002D001D000D0D0D082D083D0F0D0E03212
:0F105E007D017F0112106D1210977F010210A209
:08000300120FE11210AE80FBA8
:1008FE004100990046009000000000000043009661
:03090E00000000E6
:10104D00900096A3E0FAA3E0F5828A83E4FD020204
:01105D00D2C0
:100C7F00900096EBF0A3EAF0A3E9F0E4900000F007
:100C8F00900005F0900008F0A3F0A3F0A3F09000FF
:100C9F00037412F09000017427F0A37410F07B011D
:100CAF007A007900E4FF120E56900099E004F0905C
:100CBF0000037413F09000017426F0A37411F07BFD
:100CCF00017A0079007F01120E56900099E004F02E
:0D0CDF007BFF7A10794D7F017E00020BA48F
:100FF900EF75F003A42490F582E43400F583EBF057
:07100900A3EAF0A3E9F022C5
:100F1900900006EFF0A3EDF0A3EAF0A3EBF0E4FFF5
:100F29001210A2900006E0FFA3E0FDA3E0FAA3E0FF
:0F0F3900FB90000E7401F01208487F010210A215
:100FC200900003EFF0E4FF1210A2900003E0FFE4B0
:0F0FD20090000EF0FBFAFD1208487F010210A2FA
:100CEC00E4900000F0900000E0FFC394025051EF3C
:100CFC0075F003A42490F582E43400F583E0FBA3A3
:100D0C00E0FAA3E04A4B6030EF75F003A42490F5B1
:100D1C0082E43400F583A3E0FAA3E0F91202CEEFEB
:100D2C006016900000E0FF900096A3E0FAA3E0F5B7
:100D3C00828A837D011202D2900000E004F080A52B
:010D4C002284
:1009110041006100204008000000000000000000CC
:1009210000000000000000000000000000000000C6
:1009310000000000000000000000000000000000B6
:1009410000000000000000000000000000000000A6
:100951000000000000000001480041005E0042006C
:100961005F000041008F004300630000004100620E
:050971000041005D00E3
:0B0F4800900059EBF0A3EAF0A3E9F0E1
:100F5300E4FFFEEEC39D5018900059E0FBA3E0FAB6
:100F6300A3E0F98E827583001201AA2FFF0E80E39E
:010F7300225B
:0B098500900013EBF0A3EAF0A3E9F0F0
:100990007B017A00791974BC1201D790000174FEB2
:1009A0001201E9900016E0FE9000021201E99000A9
:1009B00017E09000031201E9900004EF1201E990A2
:1009C0000018E0600FE92404F9E43AFA12019144B6
:1009D000801201D7EEFF7E00781E7C007D01900022
:1009E00013E0FBA3E0FAA3E0F912016B7B017A00AC
:1009F0007919900016E02405FD120F48900016E0CA
:100A0000FE241EF582E43400F583EFF07B017A00CA
:090A10007919EE2406FD020EE73F
:100F7400900062E0900010F0A3EFF07B017A00791A
:100F8400109000167402F090005EE0FF04F09000F0
:0B0F940017EFF0E4A3F07F02020985D4
:0B05D300900006EBF0A3EAF0A3E9F0B3
:1005DE00E4FFF990000BC9F0A3F0A3E9F090000638
:1005EE00E0FBA3E0FAA3E0F90F9000001201AA903D
:1005FE000062F00F9000011201AA900066F00F90B9
:10060E0000021201AA90000EF00F9000031201AA30
:10061E0090000FF07E00E92FF9EE3AFA90000BEB06
:10062E00F0A3EAF0A3E9F0900066E0D394085071CD
:10063E00E490000AF0900009F0900066E0FF900050
:10064E000AE0FEC39F503FA3E0FBA3E0FAA3E0F94C
:10065E00900009E0FD7C00E92DF9EC3AFAC001EEBC
:10066E0075F005A42467F9740035F0A801FC7D012E
:10067E00D0017E007F0512016B900009E02405F089
:10068E00A3E004F080B37B017A007966C00290008B
:10069E0063A3E0FAA3E0F5828A83D0027F0102020F
:0606AE00D27F01120F745F
:0106B4002223
:050AA500900000EFF0DD
:100AAA00E548C394404003E4F548900000E0FFAEF7
:100ABA0048054874082EF8A607E54824FE600E1477
:100ACA00601C2402702AEF64BC6054804F1210BF6D
:100ADA00900000E0FE6F6047EEF46043803E9000B5
:100AEA0000E0FFD3943B4002803290005DEFF02299
:100AFA0090005DE02406FFE433FEE548B50720E4F4
:100B0A00B5061CFB7A007908E02405FD120F48900F
:0F0B1A000000E0B507069000617401F0E4F548B3
:010B290022A9
:1006B500900003E4F0A3F0A3F0900061E070030262
:1006C500078D7B007A007908900000EBF0A3EAF033
:1006D500A3E9F09000041201AA30E725E490001682
:1006E500F0900000E0FBA3E0FAA3E0F9900003120C
:1006F50001AA900017F0E4A3F0FBFAF97F041209B0
:1007050085900000E0FBA3E0FAA3E0F99000041255
:1007150001AA547FFF14601A146034240270641215
:10072500001E90005FEEF0A3EFF090008F7401F0D3
:1007350080517B007A007900C002900063A3E0FA43
:10074500A3E0F5828A83D002E4FF1202D2803490BE
:100755000000E0FBA3E0FAA3E02405F9E43AFAA3DC
:10076500EBF0A3EAF0A3E9F01210B4EF70109000DB
:1007750003E0FBA3E0FAA3E0F91205D380057F02AD
:08078500120F74E4900061F012
:01078D002249
:100D4D0090008FE0605912001E90005FE0FCA3E060
:100D5D00FDC3EF9DFDEE9CFCC004C0051210BF7ECF
:100D6D00007C037DE812020BD005D004D3ED9FEC7F
:100D7D009E402C1210BF900000EFF07B017A00799D
:100D8D00009000167401F090005EE0FF04F09000FA
:0F0D9D0017EFF0E4A3F0FF120985E490008FF048
:010DAC002224
:10102600900063EBF0A3EAF0A3E9F07BFF7A0A797C
:04103600A5020F9F61
:0610A8001206B5020D4D19
:0E09760043009C00000041009A0041009B00DD
:0E107B00E4FF120C12EF60037F01227F0022BF
:0E1089007F01120C12EF70037F01227F002204
:101010007BFF7A10797BE4FF120FF97BFF7A10795E
:06102000897F01020FF9B7
:08078E00900000EFF0A3EDF074
:10079600E4A3F0ED701E04F090009CE0FBA3E0FAE9
:1007A600A3E0F99000021201AA6401703E7F0312D1
:1007B6000F748037900001E06401702F90009CE078
:1007C600FBA3E0FAA3E04A4B602190009CA3A3E0C0
:1007D600F9120191FF900000E0B5070F9000021298
:1007E60001AAB401069000027401F0900002E060D4
:1007F60050900000E0FF120FC290009AE07010A324
:10080600F0FF120F7490009CE4F0A3F0A3F0229086
:10081600009DE475F00512027290009AE014F090C3
:10082600009CE0FBA3E0FAA3E0F9120191FF90001F
:10083600011201AAFD900003120288FBAAF0120F12
:010846001998
:01084700228E
:0B0B2A00900000EBF0A3EAF0A3E9F05C
:100B3500A3E4F0A3F0A3F0EF147063900000E0F9D4
:100B4500A3E0FAA3E0A3C9F0A3EAF0A3E9F09000BB
:100B550003E0FBA3E0FAA3E02401F9E43AFA9000EC
:100B65009CEBF0A3EAF0A3E9F0900003A3E0FAA35D
:100B7500E0F91201911490009AF0A37401F0A3E03A
:100B8500FBA3E0FAA3E0F9120191FF900001120125
:0E0B9500AAFD900003120288FBAAF0120F19AD
:010BA300222F
:100FE10012105E7BFF7A0B792A1210267BFF7A079B
:080FF100798E120C7F02101032
:0610AE00120CEC0210A878
:0610B40090009BE0FF220A
:0410BF001210C32226
:1000260075F020800E75F010800575F0087D007E55
:10003600007F003392D530D5031202C0EC33401056
:10004600EF33FFEE33FEED33FDEC33FCD5F0ED225E
:0E005600E5F0247EA2D513CC92E7CDCEFF229A
:10006400EDD2E7CD33EC3392D524814006E4FFFE94
:10007400FDFC22FCE4CFCECDCC24E0501174FF80F3
:10008400EDC3CC13CCCD13CDCE13CECF13CF047090
:07009400F030D5DE0202C0CE
:100A2500020003E493A3F8E493A34003F68001F2E4
:100A350008DFF48029E493A3F85407240CC8C333D2
:100A4500C4540F4420C8834004F456800146F6DFA1
:100A5500E4800B01020408102040809008F0E47E39
:100A6500019360BCA3FF543F30E509541FFEE49396
:100A7500A360010ECF54C025E060A840B8E493A35D
:100A8500FAE493A3F8E493A3C8C582C8CAC583CA88
:100A9500F0A3C8C582C8CAC583CADFE9DEE780BE40
:010984000072
:10009B00E709F608DFFA8046E709F208DFFA803E47
:1000AB0088828C83E709F0A3DFFA8032E309F60834
:1000BB00DFFA8078E309F208DFFA807088828C839C
:1000CB00E309F0A3DFFA806489828A83E0A3F60850
:1000DB00DFFA805889828A83E0A3F208DFFA804C2A
:1000EB0080D280FA80C680D4806980F28033801001
:1000FB0080A680EA809A80A880DA80E280CA80336A
:10010B0089828A83ECFAE493A3C8C582C8CCC583E1
:10011B00CCF0A3C8C582C8CCC583CCDFE9DEE780B1
:10012B000D89828A83E493A3F608DFF9ECFAA9F030
:10013B00EDFB2289828A83ECFAE0A3C8C582C8CC86
:10014B00C583CCF0A3C8C582C8CCC583CCDFEADE9F
:10015B00E880DB89828A83E493A3F208DFF980CC01
:10016B0088F0EF60010E4E60C388F0ED2402B404FA
:10017B000050B9F582EB2402B4040050AF232345A1
:06018B0082239000EB73DB
:10019100BB010689828A83E0225002E722BBFE026C
:0901A100E32289828A83E493229F
:1001AA00BB010CE58229F582E5833AF583E022500A
:1001BA0006E92582F8E622BBFE06E92582F8E22254
:0D01CA00E58229F582E5833AF583E493226E
:1001D700BB010689828A83F0225002F722BBFE0107
:0201E700F32201
:1001E900F8BB010DE58229F582E5833AF583E8F04C
:1001F900225006E92582C8F622BBFE05E92582C8F8
:02020900F222DF
:10020B00EF8DF0A4A8F0CF8CF0A428CE8DF0A42E07
:02021B00FE22C1
:10021D00BC000BBE0029EF8DF084FFADF022E4CCC5
:10022D00F875F008EF2FFFEE33FEEC33FCEE9DEC8E
:10023D00984005FCEE9DFE0FD5F0E9E4CEFD22EDD4
:10024D00F8F5F0EE8420D21CFEADF075F008EF2F1E
:10025D00FFED33FD4007985006D5F0F222C398FD0F
:05026D000FD5F0EA22AC
:10027200C5F0F8A3E028F0C5F0F8E5821582700217
:060282001583E038F022B4
:10028800BB0110E58229F582E5833AF583E0F5F0B4
:10029800A3E0225009E92582F886F008E622BBFE91
:1002A8000AE92582F8E2F5F008E222E5832AF583D7
:0802B800E993F5F0A3E993229C
:100EA300C2D5E830E70FB2D5E4C39BFBE49AFAE47A
:100EB30099F9E498F8EC30E717B2D5120ED912037A
:100EC30010E4C39BFBE49AFAE499F9E498F88003ED
:100ED30012031030D50DE4C39FFFE49EFEE49DFD95
:040EE300E49CFC226D
:0E02C000C3E49FFFE49EFEE49DFDE49CFC224F
:0602CE008A838982E473BB
:1002D40075F008758200EF2FFFEE33FECD33CDCCE1
:1002E40033CCC58233C5829BED9AEC99E582984064
:1002F4000CF582EE9BFEED9AFDEC99FC0FD5F0D641
:10030400E4CEFBE4CDFAE4CCF9A88222B800C1B96A
:100314000059BA002DEC8BF084CFCECDFCE5F0CBA8
:10032400F97818EF2FFFEE33FEED33FDEC33FCEBE1
:1003340033FB10D703994004EB99FB0FD8E5E4F99C
:10034400FA227818EF2FFFEE33FEED33FDEC33FC89
:10035400C933C910D7059BE99A4007EC9BFCE99A7D
:10036400F90FD8E0E4C9FAE4CCFB2275F010EF2FC2
:10037400FFEE33FEED33FDCC33CCC833C810D707C2
:100384009BEC9AE899400AED9BFDEC9AFCE899F8FD
:0E0394000FD5F0DAE4CDFBE4CCFAE4C8F92290
:00000001FF
