:030000000207C232
:0C07C200787FE4F6D8FD75810702080975
:0E084E008218000083150000008302000000E5
:1005A400EF54F0C4540FFCEF540FFFEC14603814F4
:1005B400605A14607C14700302065A240460030217
:1005C400067EAE80ED600F7401A807088002C33375
:1005D400D8FC4EFE800E7401A807088002C333D8ED
:1005E400FCF45EFE8E8022AE90ED600F7401A807CD
:1005F400088002C333D8FC4EFE800E7401A807089D
:100604008002C333D8FCF45EFE8E9022AEA0ED606F
:100614000F7401A807088002C333D8FC4EFE800E75
:100624007401A807088002C333D8FCF45EFE8EA0D0
:1006340022AEB0ED600F7401A807088002C333D85E
:10064400FC4EFE800E7401A807088002C333D8FC58
:10065400F45EFE8EB022AEE8ED600F7401A80708C8
:100664008002C333D8FC4EFE800E7401A8070880B4
:0A06740002C333D8FCF45EFE8EE8EA
:01067E002259
:100ABC00EF54F0C4540FFDEF540FFFED14601D14F0
:100ACC00602A1460371460442404704E7401A80723
:100ADC00088002C333D8FC5580FE803E7401A80701
:100AEC00088002C333D8FC5590FE802E7401A807F1
:100AFC00088002C333D8FC55A0FE801E7401A807E1
:100B0C00088002C333D8FC55B0FE800E7401A807D0
:0C0B1C00088002C333D8FC55E8FEAF0689
:010B280022AA
:0D0ED700AE05EEC454F0FEEF540F2EF58969
:010EE40022EB
:0B0F0100758CFC758A66D28CD2A92288
:03000B00020E2AB8
:100E2A00C0E0C0D075D000C000758CFC758A6678A9
:100E3A0019E22401F218E23400F2D000D0D0D0E056
:010E4A003275
:060F1400EF24FF92AF2262
:080003007818E2FE08E2FF227A
:100E0600EFC3940240037FFF22C001EF75F008A4F0
:100E16002405F9E4A801FC7DFED001FE7F0812013D
:040E26006B7F0022BC
:0D000E00EF75F008A42405F9E4FA7BFE224A
:10073400AA07EAC3940240037FFF2278A8E2FFEAF3
:1007440075F008A42405F8EFF2EA75F008A4240C67
:10075400F87401F2EA75F008A4240AF8EBF2EA75D9
:10076400F008A4240BF8E4F2EDFEEA75F008A424E2
:1007740009F8E4EEF2EF6031ED700EEA75F008A4CA
:100784002407F8E2FFE4FD800CEA75F008A42407CE
:10079400F8E2FF7D011205A4EA75F008A42408F824
:1007A400E2FFF46016E4FD800FEA75F008A4240863
:0E07B400F8E2FFF460057D011205A47F00222B
:0A09D70078A4EBF208EAF208E9F256
:1009E1007C037DE812020BAB07AA06E4F9F8FF7E4F
:1009F100107D0EFC120CEFEC12002612006478A799
:100A0100EEF208EFF278A4E2F908E2FA08E27815CA
:100A1100C9F208EAF208E9F2C374FF9FFB74FF9E72
:100A2100FA7C007DFFAF03FE12021D7801EFF27C1C
:100A3100007DFFAF03AE0212021DAF057800EFF299
:0A0A410008E2F58D8F8BD28ED2AB48
:010A4B002288
:05001E00C2ABC28E22FE
:03001B000204B824
:1004B800C0E0C0F0C083C082C0D075D000C000C00A
:0D04C80001C002C003C004C005C006C0078B
:1004D50078F8E4F278F8E2FFC3940240030205805D
:1004E500EF75F008A42405F8E2700302057878F8A2
:1004F500E2FF75F008A4240AF8E2FE602EEF75F01D
:1005050008A4240BF8E2C39E40217815E2FB08E21B
:10051500FA08E24A4B605C78F8E2FF781508E2FADF
:1005250008E2F5828A831202BC804878F8E2FE75FB
:10053500F008A42406F8E2FFEE75F008A4240CF8F0
:10054500E2FD1205A478F8E2FF75F008A4240CF882
:10055500E2700BEF75F008A4240BF8E204F278F8CA
:10056500E275F008A4240CF8E270047F0180027F94
:1005750000EFF278F8E204F20204D97801E2F58D91
:0405850018E2F58BF8
:10058900D007D006D005D004D003D002D001D000C6
:0B059900D0D0D082D083D0F0D0E03270
:030F2A007F012222
:100D93007802EBF208EAF208E9F2E4FF120F1475A5
:100DA300985075C83475CBFF75CADB85CBCD85CA22
:070DB300CCD2AC0F020F14BB
:0A0D330078F5EBF208EAF208E9F2A5
:100D3D00E4FFEFC39D501EC29978F5E2FB08E2FA7D
:100D4D0008E2F98F827583001201AAF5993099FD99
:050D5D00C2990F80DDCA
:010D6200226E
:03002300020B923B
:100B9200C0E0C0F0C083C082C0D075D000C000C029
:100BA20001C002C003C004C005C006C00730981FC0
:100BB2007802E2FB08E2FA08E24A4B601078020887
:100BC200E2FA08E2F5828A83AF991202BCC298D097
:100BD20007D006D005D004D003D002D001D000D077
:0A0BE200D0D082D083D0F0D0E032F2
:0F0EC8007D017F01120ED7120F017F01020F145F
:080F0C00120E66120F2080FB9B
:10085C00812300861A0000000000008320000000A5
:100EB800782008E2FA08E2F5828A83E4FD0202BC9F
:100BEC007820EBF208EAF208E9F2E4789CF278A3B8
:100BFC00F278A1F208F2789F74FFF2789D7427F2D4
:100C0C00087425F27BFE7A00799CE4FF120E0678BC
:100C1C0023E204F2789D7426F2087424F27BFE7AA7
:100C2C0000799C7F01120E067823E204F27BFF7A96
:0A0C3C000E79B87F017E000209D78F
:100EA700EF75F003A4241AF8EBF208EAF208E9F266
:010EB7002218
:100DBA0078A2EFF208EDF208EBF2E4FF120F1478D2
:100DCA00A2E2FF08E2FD08E2FB78A87401F212072A
:060DDA00347F01020F143A
:100E4B00789CEFF2E4FF120F14789CE2FFE478A891
:0B0E5B00F2FBFD1207347F01020F14B0
:100C9F00E4789CF2789CE2FFC394025042EF75F027
:100CAF0003A4241AF8E2FB08E2FA08E24A4B602890
:100CBF00EF75F003A4241AF808E2FA08E2F9120219
:100CCF00B8EF6014789CE2FF782008E2FA08E2F5AA
:0F0CDF00828A837D011202BC789CE204F280B508
:010CEE0022E3
:10086C00812800A0402900000000000000000000CA
:10087C00000000000000000000000000000000006C
:10088C00000000000000000000000000000000005C
:10089C00000000000000000000000000000000004C
:1008AC00000000000000816D008125008226000000
:0E08BC00819700836A0000008169008124009A
:060D63007BFEE22405FD09
:0A0D690078F5EBF208EAF208E9F26F
:100D7300E4FFFEEEC39D501778F5E2FB08E2FA08A4
:0F0D8300E2F98E827583001201AA2FFF0E80E421
:010D9200223E
:0A08D30078AFEBF208EAF208E9F250
:1008DD007BFE7A0079B574BC1201D790000174FECD
:1008ED001201E978B2E2FE9000021201E978B3E25A
:1008FD009000031201E9900004EF1201E978B4E2CF
:10090D00600FE92404F9E43AFA12019144801201CE
:10091D00D7EEFF7E0078BA7C007DFEC00078AFE296
:10092D00FB08E2FA08E2F9D00012016B7A0079B502
:10093D0078B2120D6378B2E2FE24BAF8EFF27BFEC4
:0B094D007A0079B5EE2406FD020D33A0
:100DE0007869E278ACF208EFF27BFE7A0079AC78B1
:100DF000B27402F27825E2FF04F278B3EFF2E4086D
:060E0000F27F020208D39C
:0A038C0078A2EBF208EAF208E9F2A9
:10039600E4FFF978A7C9F208F208E9F278A2E2FBCD
:1003A60008E2FA08E2F90F9000001201AA7869F251
:1003B6000F9000011201AA786EF20F90000212014E
:1003C600AA78AAF20F9000031201AA78ABF27E0077
:1003D600E92FF9EE3AFA78A7EBF208EAF208E9F221
:1003E600786EE2D3940A40030204B2E478A6F218C7
:1003F600F2786EE2FF78A6E2FEC39F4003020498FD
:1004060008E2FB08E2FA08E2F978A5E2FF04F28FB7
:10041600827583001201AAFFEE25E025E0246FF81D
:10042600EFF278A5E2FF04F28F827583001201AA2B
:10043600FFEE25E025E02470F8EFF278A5E2FF0450
:10044600F28F827583001201AAFF78A6E225E025C5
:10045600E02471F8E4F208EFF278A5E2FF04F28FE7
:10046600827583001201AAFD7C0078A6E2FB25E0D6
:1004760025E02471F909E3FEE42DFFEC3EF8EB25B7
:10048600E025E02471C8F208EFF278A6E204F20251
:1004960003F77BFE7A00796EC002786A08E2FA08F2
:1004A600E2F5828A83D0027F010202BC7F01120D2F
:0104B600E065
:0104B7002222
:04095800789CEFF2A6
:10095C00786DE2C394404002E4F2789CE2FF786D3B
:10096C00E2FE04F274292EF8EFF2786DE224FE60B8
:10097C000E14601B24027027EF64BC604D8047127C
:10098C000F26789CE2FE6F6041EEF4603D80377874
:10099C009CE2FFD3943B4002802C7824EFF2227827
:1009AC0024E22406FFE433FE786DE2B5071CE4B5BF
:1009BC0006187A0079297824120D63789CE2B50721
:0A09CC000578287401F2E4786DF25A
:0109D60022FE
:10067F00789FE4F208F208F27828E2700302073359
:10068F007BFE7A007929789CEBF208EAF208E9F20E
:10069F009000041201AA30E722E478B2F2789CE2CB
:1006AF00FB08E2FA08E2F99000031201AA78B3F20C
:1006BF00E408F2FBFAF97F041208D3789CE2FB08F6
:1006CF00E2FA08E2F99000041201AA547FFF1460C5
:1006DF0018146031240270481200037826EEF208D5
:1006EF00EFF278977401F280377B007A007900C0BF
:1006FF0002786A08E2FA08E2F5828A83D002E4FF00
:10070F001202BC801B789CE2FB08E2FA08E224018B
:10071F00F9E43AFA08EBF208EAF208E9F212038C6C
:04072F00E47828F250
:0107330022A3
:100C46007897E260531200037826E2FC08E2FDC3BF
:100C5600EF9DFDEE9CFCC004C005120F267E007CB5
:100C6600037DE812020BD005D004D3ED9FEC9E4025
:100C760027120F26789CEFF27BFE7A00799C78B2D9
:100C86007401F27825E2FF04F278B3EFF2E408F299
:080C9600FF1208D3E47897F285
:010C9E002233
:100E9400786AEBF208EAF208E9F27BFF7A097958FA
:030EA400020D93A9
:060F1A0012067F020C46E6
:0808CA008399000000819800F1
:0E0EE500E4FF120ABCEF70037F01227F00229F
:0E0EF3007F01120ABCEF60037F01227F002204
:100E7E007BFF7A0E79E5E4FF120EA77BFF7A0E79DF
:060E8E00F37F01020EA734
:100B2900E4FEED70030E801AEDB401167899E2FB2C
:100B390008E2FA08E2F990000212027245F0700226
:100B49007E01EE6043120E4B7898E2700DFF120D94
:100B5900E07899E4F208F208F222789BE22404F2A0
:100B690018E23400F27898E214F208E2FB08E2FA9B
:100B790008E2F9120191FF9000011201AAFD90000B
:080B890002120272FB120DBA08
:010B91002241
:0A0A4C00789CEBF208EAF208E9F2E8
:100A560008E4F208F208F2EF14705A789CE2F908FA
:100A6600E2FA08E208C9F208EAF208E9F2789FE237
:100A7600FB08E2FA08E22401F9E43AFA7899EBF283
:100A860008EAF208E9F2789FE2FB08E2FA08E2F9DE
:100A9600120191147898F208E2FB08E2FA08E2F9EA
:100AA600120191FF9000011201AAFD9000021202AC
:050AB60072FB120DBAF5
:010ABB002218
:100E6600120EC87BFF7A0A794C120E947BFF7A0B1E
:080E76007929120BEC020E7E3B
:060F2000120C9F020F1AE3
:040F2600120F2A225A
:1000260075F020800E75F010800575F0087D007E55
:10003600007F003392D530D5031202AAEC3340106C
:10004600EF33FFEE33FEED33FDEC33FCD5F0ED225E
:0E005600E5F0247EA2D513CC92E7CDCEFF229A
:10006400EDD2E7CD33EC3392D524814006E4FFFE94
:10007400FDFC22FCE4CFCECDCC24E0501174FF80F3
:10008400EDC3CC13CCCD13CDCE13CECF13CF047090
:07009400F030D5DE0202AAE4
:1007CE00020F0CE493A3F8E493A34003F68001F226
:1007DE0008DFF48029E493A3F85407240CC8C3332C
:1007EE00C4540F4420C8834004F456800146F6DFFB
:1007FE00E4800B010204081020408090084EE47E35
:10080E00019360BCA3FF543F30E509541FFEE493EF
:10081E00A360010ECF54C025E060A840B8E493A3B6
:10082E00FAE493A3F8E493A3C8C582C8CAC583CAE1
:10083E00F0A3C8C582C8CAC583CADFE9DEE780BE99
:0108D2000025
:10009B00E709F608DFFA8046E709F208DFFA803E47
:1000AB0088828C83E709F0A3DFFA8032E309F60834
:1000BB00DFFA8078E309F208DFFA807088828C839C
:1000CB00E309F0A3DFFA806489828A83E0A3F60850
:1000DB00DFFA805889828A83E0A3F208DFFA804C2A
:1000EB0080D280FA80C680D4806980F28033801001
:1000FB0080A680EA809A80A880DA80E280CA80336A
:10010B0089828A83ECFAE493A3C8C582C8CCC583E1
:10011B00CCF0A3C8C582C8CCC583CCDFE9DEE780B1
:10012B000D89828A83E493A3F608DFF9ECFAA9F030
:10013B00EDFB2289828A83ECFAE0A3C8C582C8CC86
:10014B00C583CCF0A3C8C582C8CCC583CCDFEADE9F
:10015B00E880DB89828A83E493A3F208DFF980CC01
:10016B0088F0EF60010E4E60C388F0ED2402B404FA
:10017B000050B9F582EB2402B4040050AF232345A1
:06018B0082239000EB73DB
:10019100BB010689828A83E0225002E722BBFE026C
:0901A100E32289828A83E493229F
:1001AA00BB010CE58229F582E5833AF583E022500A
:1001BA0006E92582F8E622BBFE06E92582F8E22254
:0D01CA00E58229F582E5833AF583E493226E
:1001D700BB010689828A83F0225002F722BBFE0107
:0201E700F32201
:1001E900F8BB010DE58229F582E5833AF583E8F04C
:1001F900225006E92582C8F622BBFE05E92582C8F8
:02020900F222DF
:10020B00EF8DF0A4A8F0CF8CF0A428CE8DF0A42E07
:02021B00FE22C1
:10021D00BC000BBE0029EF8DF084FFADF022E4CCC5
:10022D00F875F008EF2FFFEE33FEEC33FCEE9DEC8E
:10023D00984005FCEE9DFE0FD5F0E9E4CEFD22EDD4
:10024D00F8F5F0EE8420D21CFEADF075F008EF2F1E
:10025D00FFED33FD4007985006D5F0F222C398FD0F
:05026D000FD5F0EA22AC
:10027200BB0110E58229F582E5833AF583E0F5F0CA
:10028200A3E0225009E92582F886F008E622BBFEA7
:100292000AE92582F8E2F5F008E222E5832AF583ED
:0802A200E993F5F0A3E99322B2
:100CEF00C2D5E830E70FB2D5E4C39BFBE49AFAE430
:100CFF0099F9E498F8EC30E717B2D5120D251202E6
:100D0F00FAE4C39BFBE49AFAE499F9E498F88003B8
:100D1F001202FA30D50DE4C39FFFE49EFEE49DFD61
:040D2F00E49CFC2222
:0E02AA00C3E49FFFE49EFEE49DFDE49CFC2265
:0602B8008A838982E473D1
:1002BE0075F008758200EF2FFFEE33FECD33CDCCF7
:1002CE0033CCC58233C5829BED9AEC99E58298407A
:1002DE000CF582EE9BFEED9AFDEC99FC0FD5F0D657
:1002EE00E4CEFBE4CDFAE4CCF9A88222B800C1B981
:1002FE000059BA002DEC8BF084CFCECDFCE5F0CBBF
:10030E00F97818EF2FFFEE33FEED33FDEC33FCEBF7
:10031E0033FB10D703994004EB99FB0FD8E5E4F9B2
:10032E00FA227818EF2FFFEE33FEED33FDEC33FC9F
:10033E00C933C910D7059BE99A4007EC9BFCE99A93
:10034E00F90FD8E0E4C9FAE4CCFB2275F010EF2FD8
:10035E00FFEE33FEED33FDCC33CCC833C810D707D8
:10036E009BEC9AE899400AED9BFDEC9AFCE899F813
:0E037E000FD5F0DAE4CDFBE4CCFAE4C8F922A6
:00000001FF
